:020000022000DC
:1060000000000420D1620200F9620200FB6202007B
:10601000FD620200FF620200016302000000000056
:106020000000000000000000000000000363020008
:10603000056302000000000007630200096302001C
:106040000DCA02000B63020069D70200E1E2020000
:106050000B6302000B6302006DD402000B630200AD
:106060000B6302000B6302000B6302000B63020070
:106070000B6302000B6302000B6302000B63020060
:106080000B630200019E02000B6302000B6302001F
:10609000419E02000B630200912A03000B63020081
:1060A0000B6302000B6302000B6302000B63020030
:1060B0000B6302000B630200000000000000000000
:1060C0000B6302000B6302000B6302000B63020010
:1060D0000B6302000B6302000B6302000B63020000
:1060E0000B6302000B6302000B6302000000000060
:1060F000000000000B630200000000000B630200C0
:10610000000000000000000000000000000000008F
:10611000000000000000000000000000000000007F
:10612000000000000000000000000000000000006F
:10613000000000000000000000000000000000005F
:10614000000000000000000000000000000000004F
:10615000000000000000000000000000000000003F
:10616000000000000000000000000000000000002F
:10617000000000000000000000000000000000001F
:10618000000000000000000000000000000000000F
:1061900000000000000000000000000000000000FF
:1061A00000000000000000000000000000000000EF
:1061B00000000000000000000000000000000000DF
:1061C00000000000000000000000000000000000CF
:1061D00000000000000000000000000000000000BF
:1061E00000000000000000000000000000000000AF
:1061F000000000000000000000000000000000009F
:1062000010B5054C237833B9044B13B10448AFF3F0
:1062100000800123237010BD982B00200000000097
:10622000B0770300084B10B51BB108480849AFF31D
:1062300000800848036803B910BD074B002BFBD052
:10624000BDE81040184700BF00000000B077030011
:106250009C2B0020942B002000000000154B002BED
:1062600008BF134B9D46A3F5803A00218B460F468D
:106270001348144A121A0EF02AFF0F4B002B00D0BD
:1062800098470E4B002B00D09847002000210400B7
:106290000D000D48002802D00C48AFF300800EF02E
:1062A000E5FE200029000AF0F9FC0EF0CBFE00BF4D
:1062B00000000800000004200000000000000000B2
:1062C000982B00202C42002000000000000000005D
:1062D0000649074A074B9B1A03DD043BC858D050B8
:1062E000FBDC05F0BFFBFFF7B9FF0000B878030047
:1062F000982A0020982B0020FEE7FEE7FEE7FEE745
:10630000FEE7FEE7FEE7FEE7FEE7FEE780B584B0C6
:1063100000AF78607B68002B00D109E0064B43F0AA
:106320000103FB607B689B01BB60FB68B868984712
:106330001037BD4680BD00BFB064030080B582B099
:1063400000AF78607B68002B00D109E04FF47A70D1
:10635000FFF7DCFF7B68013B7B607B68002BF5D19E
:106360000837BD4680BD00BF80B500AF0AF0BAFE59
:1063700080BD00BF80B588B000AFF860B9607A60BA
:106380007B68002B32D00023FB610323BB61BA681A
:10639000FB691344002019467A680AF055FE7861BB
:1063A000FA697B691344FB617A687B69D31A7B6065
:1063B0007B69002B14D10F4B1B7883F00103DBB2F8
:1063C000002B00D012E00120FFF7B8FFBB69013BB2
:1063D000BB61BB69002B03D1064B00221A7005E09C
:1063E000044B01221A707B68002BD0D12037BD46A8
:1063F00080BD00BFB42B002080B584B002AF7860B0
:106400003960054B009378683968044A402300F0EE
:106410001BF80837BD4680BD75630200B82B00200D
:1064200080B483B000AF78600C37BD465DF8047B64
:10643000704700BF80B483B000AF78600C37BD46B2
:106440005DF8047B704700BF90B5A1B002AFF86063
:10645000B9607A603B60B86805F0B6F87B68FB64A9
:106460003B683B6500237B65002387F85830002399
:10647000FB65D7F888303B6600237B6707F1340360
:10648000B868194608227B6F05F060F908237B671E
:10649000FB6B3B643B8FA7F844307B8FA7F84630FB
:1064A000002387F8493097F8343003F00303DBB258
:1064B000012B2CD17B6BC3F39523FB6697F834300B
:1064C000C3F3C203DBB287F84830BB8EC3F3831338
:1064D000DBB2BB66BB6E9B0007F11C02B8681146BD
:1064E0001A467B6F05F032F9BB6E9B007A6F13443E
:1064F0007B6707F11C0207F1400407F14C0300938E
:10650000F86E1146BA6E234600F0CCFE34E097F8E0
:10651000343003F00303DBB2022B2DD1FB8EC3F327
:1065200089139BB23B6797F83430C3F3C203DBB2E5
:1065300087F848303B6F082B28BF08237B6607F19C
:106540001403B86819467A6E7B6F05F0FFF87A6F0E
:106550007B6E13447B673A6F7B6ED31A3B6707F100
:10656000140107F1400207F14C030846796E00F070
:1065700039FF3B6F002BDDD1B86805F035F87C376B
:10658000BD4690BD80B483B000AF78607B68DB68A7
:1065900001225A710C37BD465DF8047B704700BF7D
:1065A00080B582B000AF4FF0FF337B60FFF7DCFEB9
:1065B0000548042100F090FD78600348FFF7E2FFF2
:1065C0000837BD4680BD00BFA078030080B582B00B
:1065D00000AF786039607B681B681B687868396831
:1065E00098470837BD4680BD80B582B000AF78605F
:1065F0007B681B685B68786898470837BD4680BD34
:1066000080B582B000AF78607B681B689B68786853
:1066100098470837BD4680BD80B483B000AF78602E
:106620000B46FB707B68DB68FA781A710C37BD4645
:106630005DF8047B704700BF80B483B000AF786022
:106640007B68DB681B7918460C37BD465DF8047B18
:10665000704700BF80B483B000AF78607B68DB68B0
:1066600001225A710C37BD465DF8047B704700BFAC
:1066700080B483B000AF78607B68DB685B791846D4
:106680000C37BD465DF8047B704700BF80B584B011
:1066900000AF78603960154BFF229A60134B0022DF
:1066A0001A60124B00225A60104B0022C3F81824C3
:1066B0000E4B0022C3F814240C4B002283F8202434
:1066C0000B4804F0E9FEF860FB68002B01D0FB6882
:1066D00008E0084805F0CAF8074A084BD31ADB0857
:1066E000BB60002318461037BD4680BD602D0020DA
:1066F0001C780300C8640300A0780300307803000E
:1067000080B400AF044A054BD31ADB081846BD46D7
:106710005DF8047B704700BFA07803003078030069
:1067200080B586B000AF78600B46FB70FB78002B1D
:106730001FD0FFF7E5FF386100237B6113E07B6921
:106740009B000E4A1344FB60FB681B881A467B685B
:106750001B689A4204D17B687A691A60002309E0B9
:106760007B6901337B617A693B699A42E7D30523F0
:1067700000E0002318461837BD4680BD982B002046
:1067800080B584B000AF78600B46FB703A1DFB7893
:1067900010461946FFF7C4FF0346002B07D17B685C
:1067A000DB00054A1344FB60FB681B6800E0002324
:1067B00018461037BD4680BD3078030080B485B0E0
:1067C00000AF78600B46FB707B68DB00144A134413
:1067D000BB60FB78013B032B18D801A252F823F0D1
:1067E000F1670200F7670200FD670200056802001A
:1067F0000223FB730DE00423FB730AE0BB681B79E3
:10680000FB7306E0BB685B79FB7302E00023FB735C
:1068100000BFFB7B18461437BD465DF8047B70470C
:106820003078030080B485B000AF78603960002311
:10683000FB737B681B7803F00403DBB2002B23D0CF
:106840007B681B78C3F30103DBB2012B02D0022B60
:106850000CD017E03B681B687A681288C2F3831279
:10686000D2B213449A1C3B681A600BE03B681B6869
:106870007A685288C2F3891292B213449A1C3B6818
:106880001A6000BF0123FB73FB7B18461437BD461B
:106890005DF8047B704700BF80B58AB000AF00236D
:1068A000FB84384803F020FF374803F01DFF374BC7
:1068B0005B683B61354B9B68BB613A69BB691340C0
:1068C00002339B00314A134404333B6207F1100347
:1068D000386A1946FFF7A6FF0346002B09D03A692C
:1068E000BB69134002339B00284A134404333B62C4
:1068F00003E000BF0023FB6112E0E7E7FB699B00B8
:106900003A1D1A443B69591C3961B9690B401F494A
:1069100002339B000B445B681360FB690133FB612E
:10692000FB69012BEAD93B79C3F30103DBB2012BED
:106930000ED0022B00D016E07B89FB84FB88C3F3CA
:1069400089139BB203339A083B6913443B610AE005
:106950007B89FB84BB88C3F38313DBB21A463B6994
:1069600013443B6100BF084803F0CCFE78617B69AB
:10697000002B02D03B69054A5360FB8C1846283730
:10698000BD4680BD7831002074310020602D00208C
:1069900080B584B000AF0848002103F00BFEF8601A
:1069A000FB68BB60BB6883F310037B607B681846A1
:1069B0001037BD4680BD00BF7C31002080B588B057
:1069C00000AFF860B9607A603B60FB681B0CFB614C
:1069D000FFF7DEFFB8613B685A1CBB6A1340BA6917
:1069E0001104FA690A431C4902339B000B445A60A4
:1069F0003A68BB6A134002339B00174A13440433BE
:106A00007B61FB68DBB203F00703D9B27A691378C4
:106A100061F3C50313707B68DBB203F00F03D9B2D7
:106A20007A69138861F389131380BB68C3F3150176
:106A30007A69136861F39F2313607A6913780121DF
:106A400061F3010313707A6913786FF38203137093
:106A50002037BD4680BD00BF602D002080B58CB0C2
:106A600000AFF860B9601346FB71FB680233BB628C
:106A7000012387F827300023FB7607F11B03184614
:106A800003F032FD394B1A68BB681A60374B9A68BD
:106A9000364B5968354B1B68CB1A13440133FB62E4
:106AA00014E03348012103F0EBFDFFF7F5FE3862F7
:106AB0002F48396A03F0E4FD2C4B9A682B4B596838
:106AC0002A4B1B68CB1A13440133FB62BA6AFB6A78
:106AD0009A42E6D897F82730002B3DD000237B61FF
:106AE000FB79002B12D03B7D012262F301033B7541
:106AF0003B7D43F004033B75FB68DBB203F00F03FF
:106B0000DAB2BB8A62F38913BB8211E03B7D0222B9
:106B100062F301033B753B7D43F004033B75FB6867
:106B20009BB2C3F309039AB2FB8A62F38F13FB8211
:106B30000E4B1A680D4B9B68134002339B000B4AA7
:106B400013440433FB617A69FB691A60074B1A68C6
:106B5000BB6A1344054A1360FB7E184603F0CEFC63
:106B600097F8273018463037BD4680BD602D00208D
:106B70007C31002090B58BB002AFF860B9607A60CC
:106B80003B60204B9B687B6107F110033868194616
:106B90000122FFF763FF0346002B24D03B69023339
:106BA000FB610023BB6111E0FB695A1CFA617A6941
:106BB0001340BA69920079680A4412681149023395
:106BC0009B000B445A60BB690133BB61BA693B68E7
:106BD0009A42E9D33C697B690093F868B9683A68DE
:106BE0002346FFF7EBFE074B93F82034002B05D02C
:106BF00000BF00F06FF80346002BFAD12437BD46E2
:106C000090BD00BF602D002080B582B000AF7860DD
:106C100039607868396800220023FFF7ABFF083736
:106C2000BD4680BD80B586B000AFF860B9607A60BF
:106C30007B687B6107F11403F868B9681A46012381
:106C4000FFF798FF1837BD4680BD00BF80B586B0FE
:106C500000AFF860B9607A603B607B683B613B687D
:106C60007B6107F11003F868B9681A460223FFF741
:106C700081FF1837BD4680BD80B58AB000AFF8608F
:106C8000B9607A603B607B687B613B68BB613B6B52
:106C9000FB617B6B3B62BB6B7B6207F11403F868A3
:106CA000B9681A460523FFF765FF2837BD4680BD42
:106CB00080B400AF064B5A68054B1B689A420CBF64
:106CC00001230023DBB21846BD465DF8047B704704
:106CD000602D002080B598B000AFFFF7E9FF0346B4
:106CE000002B01D00023B8E1974B0022C3F81824F1
:106CF000BFF34F8F944B5B683B61934B9B683B6446
:106D00003A693B6C134002339B008F4A13440433AF
:106D1000FB650023BB6500237B650023FB6307F154
:106D20001003F86D1946FFF77DFD0346002B19D0BF
:106D3000854BD3F81834002B14D1834B1A683B6968
:106D40009A4205D8804B1B687F4A5360002384E138
:106D50003A693B6C134002339B007B4A1344043373
:106D6000FB65DCE700233B6511E03B6D9B003A1DB2
:106D70001A443B69591C3961396C0B407249023322
:106D80009B000B445B6813603B6D01333B653B6DBF
:106D9000012BEAD93B7903F00303DBB2022B40F06D
:106DA0009980FB88C3F389139BB2BB63FB88C3F351
:106DB00089139BB2502BA8BF50237B637B6B9BB284
:106DC000C3F309039AB2FB8862F38F13FB807B6BDA
:106DD00008333B633B79C3F3C203DBB2FB635B481D
:106DE000396B04F065FBB865BB6D002B71D0B86DD5
:106DF00004F0EAFB3B1DB86D194608227B6D04F0D8
:106E00008FFC7B6D08337B653B69DA433B6C134039
:106E100001339B00FB627A6BFB6A9A4243D9FB6A9F
:106E2000002B08D03A693B6C134002339B00464A62
:106E30001344043300E0464BBB62FB6A002B02D0D4
:106E4000FB6ADBB201E07B6BDBB287F82730FB6AC1
:106E5000002B01D03E4B00E000233B62FB6A002B7D
:106E600006D07B6BDAB2FB6ADBB2D31ADBB200E08E
:106E70000023FB7797F82730B86DB96A1A467B6D07
:106E800004F04EFC97F827307A6D13447B653B6A1B
:106E9000002B07D0FB7FB86D396A1A467B6D04F072
:106EA0003FFC0FE00EE03A693B6C134002339B005D
:106EB000254A13440433BB61B86DB9697A6B7B6DA5
:106EC00004F02EFCBB6B03339A083B6913443B610F
:106ED0005EE05DE03B7903F00303DBB2012B57D1A9
:106EE000BB88C3F38313DBB2062B28BF0623DBB2B8
:106EF00003F00F03DAB2BB8862F38913BB80BB884F
:106F0000C3F38313DBB202337B613B79C3F3C20368
:106F1000DBB2FB637B699B000C48194604F0C8FA9E
:106F2000B865BB6D002B33D0B86D04F04DFB3B1D35
:106F3000B86D194608227B6D04F0F2FB7B6D0833B7
:106F40007B6500233B651BE0602D00201C7803005F
:106F50006C2D00203B695A1C3A613A6C1340023395
:106F60009B00404A13440433B86D194604227B6DDC
:106F700004F0D6FB7B6D04337B653B6D01333B65D1
:106F8000BB88C3F38313DBB21A463B6D9A42E1D848
:106F9000BB6D002B3ED0334BD3F81034FB64314B28
:106FA000D3F81834002B03D0B86D04F01DFB30E08B
:106FB00017E0002387F84B30F86CFFF759FB0346C6
:106FC000002B02D0012387F84B3097F84B30002B71
:106FD00003D0F86CB96DFFF7F9FAFB6CDB681B683E
:106FE000FB64FB6C002BE4D1B86D04F0FDFA0023C8
:106FF000FB70FB1C184603F077FA1A4BD3F81834D1
:10700000002B02D13B69174A5360FB78184603F006
:1070100075FA19E0134BD3F810347B6406E0786CF2
:10702000FFF7EEFA7B6CDB681B687B647B6C002BE4
:10703000F5D10D4A0D4BD31ADB081B0443F00203B4
:1070400018460B49FFF7E0FDFFF732FE0346002B21
:1070500001D0002300E0012300BF18466037BD4681
:1070600080BD00BF602D00206078030030780300F1
:10707000D864030080B584B000AF0023FB6020E03B
:10708000144BD3F81034BB600123FB710EE0B868D9
:10709000FFF7D2FA03461A46FB689A4202D1002350
:1070A000FB7106E0BB68DB681B68BB60BB68002B3C
:1070B000EDD1FB79002B01D0FB6807E0FB680133C1
:1070C000FB60FB68092BDBDD4FF0FF331846103700
:1070D000BD4680BD602D002080B584B000AF7860D3
:1070E0000B46FB70FFF7C6FFF860FB68B3F1FF3F8C
:1070F00001D1FB6822E0FB68DBB278681946FFF734
:107100008BFA104BD3F81034002B08D10D4A7B6852
:10711000C2F810347B68DB6800221A600DE07B68DF
:10712000DB68084AD2F81024D26812681A60054B4E
:10713000D3F81034DB687A681A60FB681846103799
:10714000BD4680BD602D002080B582B000AF0C4BE5
:10715000D3F810347B600A4B012283F8202409E025
:107160007868FFF777FA7868FFF73EFA7B68DB68A4
:107170001B687B607B68002BF2D10837BD4680BD61
:10718000602D002080B483B000AF786039600C3788
:10719000BD465DF8047B704790B585B002AF78605E
:1071A00039607B68DB88002B0AD07B68DB881C4653
:1071B0001E4B009338681E491E4A234603F0C0FD4B
:1071C0007B681B7A052B2ED07B685B7A002B12D054
:1071D0007B689B881A467B681B7A10461946FFF726
:1071E000EDFA03461A46144B53F822303868134917
:1071F0001A4603F0A5FD7B681B6838681946FFF73F
:10720000C1FF7B681B7A1A460D4B53F822407B68FE
:107210009B8818460021FFF7B3FA034638680949EE
:10722000224603F08DFD0C37BD4690BD0C65030072
:10723000546503001C650300B42A00206C6503003C
:10724000A02A00207065030080B584B000AFF8600C
:10725000B9601346FB71FB681B7A052B0FD0FB68E6
:107260005B7A002B06D00C4B1B68B8680B491A469A
:1072700003F066FDB8680A4903F062FD06E0FB7999
:10728000002B03D0B868064903F05AFDB86803F034
:107290003FFD1037BD4680BDB42A00206C65030059
:1072A0007C650300B0B58AB004AFF860B9607A605D
:1072B0003B60BB6A1B7BFB75BB6A00221A73386894
:1072C000B96AFFF769FF7B68062B7FD801A252F8E5
:1072D00023F000BFF1720200FB7202000B73020088
:1072E0001F7302003D730200657302009573020074
:1072F000B86AF96803F024FD69E0BB681B68B86AE6
:10730000F9681A4603F01CFD61E0BB681A68BB68A7
:1073100004331B68B86AF96803F012FD57E0BB68D4
:107320001A68BB6804331C68BB6808331B68009389
:10733000B86AF968234603F003FD48E0BB681D689E
:10734000BB6804331C68BB6808331A68BB680C331D
:107350001B6800920193B86AF9682A46234603F035
:10736000EFFC34E0BB681D68BB6804331C68BB6875
:1073700008331968BB680C331A68BB6810331B6884
:10738000009101920293B86AF9682A46234603F0F5
:10739000D7FC1CE0BB681D68BB6804331C68BB6875
:1073A00008331868BB680C331968BB6810331A6857
:1073B000BB6814331B680090019102920393B86A72
:1073C000F9682A46234603F0BBFC00E000BF38689A
:1073D000B96A0022FFF738FFBB6AFA7D1A731837C3
:1073E000BD46B0BD80B586B000AFF860B9607A60C8
:1073F0003B60BB68082B00D959E03B681B7BFB74E2
:107400003B6800221A7378683968FFF7C5FE0023CD
:107410007B6114E07A69BB689A4209D2FA687B6999
:1074200013441B78386823491A4603F089FC03E0AB
:107430003868214903F084FC7B6901337B617B69F7
:10744000072BE7D938681D4903F07AFC00237B61DC
:1074500022E07A69BB689A4217D2FA687B691344C2
:107460001B78BB74164B1A68BB7C013313441B7822
:1074700003F09703002B01D0BB7C00E02E2338687B
:1074800010491A4603F05CFC03E038680E4903F02B
:1074900057FC7B6901337B617B69072BD9D97868FD
:1074A00039680122FFF7D0FE3B68FA7C1A7318375F
:1074B000BD4680BD80650300886503008C650300C0
:1074C000242B002090650300946503002DE9F04F04
:1074D0008BB000AFF860002387F827309AE0534B59
:1074E0001A6897F82730DB0013443B623B6A1B782D
:1074F00019464FF001024FF00003A1F12006C1F13F
:10750000200003FA01FB02FA06F64BEA060B22FA08
:1075100000F04BEA000B02FA01FAC7E906AB444B54
:10752000D3E90001D7E9062302EA000203EA0103D6
:1075300013436AD0D7E906236FEA02006FEA03011A
:107540003B4BD3E9002302EA000203EA0103384976
:10755000C1E900233B6A1B78184605F075FF034616
:10756000FB753B6A1B7819464FF001024FF0000390
:10757000A1F12006C1F1200003FA01F502FA06F696
:10758000354322FA00F0054302FA01F4294BD3E90E
:10759000002304EA020005EA0301C7E90001FA7DBD
:1075A0004FF00003396A0978A1F12006C1F12000EB
:1075B00003FA01F902FA06F649EA060922FA00F08E
:1075C00049EA000902FA01F8D7E90001494508BF74
:1075D00040451AD1FB7D3A6A5278012A0CBF01223C
:1075E0000022D2B293420CBF01230023DBB23B61E5
:1075F0003B6A5B68002B08D03B6A5B683A6A11788B
:107600003A69D2B208461146984797F827300133B5
:1076100087F82730084B1B7897F827209A42FFF409
:107620005EAF2C37BD46BDE8F08F00BF843100202F
:10763000B8310020B031002088310020F0B587B08B
:1076400000AF7860F9707C684FF001004FF00001E6
:10765000A4F12006C4F1200501FA04F300FA06F6AD
:10766000334320FA05F52B4300FA04F2C7E904235B
:107670002F4B184602F088FCF860FB68002B00D006
:1076800053E02C4BD3E90001D7E9042302EA0002BE
:1076900003EA0103134338D1786805F0D5FE0346A9
:1076A000002B0CD0244BD3E90001D7E9042342EA94
:1076B000000243EA01032049C1E900230FE0D7E9B2
:1076C00004236FEA02006FEA03011B4BD3E9002396
:1076D00002EA000203EA01031749C1E90023154B3E
:1076E000D3E90001D7E9042342EA000243EA010397
:1076F0001049C1E900230E4A104B1B681046194679
:10770000002202F00DFCF8600FE0D7E904236FEAD5
:1077100002006FEA0301074BD3E9002302EA0002EB
:1077200003EA01030349C1E900231C37BD46F0BD4C
:1077300090310020B8310020B03100208C31002081
:1077400080B58AB000AFF8600B467A60FB727B6848
:10775000042B01D8072354E005F08CFD034683F089
:107760000103DBB2002B09D005F03AFD78627B6A99
:107770003B623B6A002B01D03B6A42E0234AFB6834
:107780001360234AFB7A1370224A7B6813602249F4
:107790004FF000024FF00003C1E900231F494FF0F2
:1077A00000024FF00003C1E900231FE0FB7ADB0079
:1077B000FA681344FB610023BB820023BB750323DB
:1077C0003B75FB699B787B75FB691B781A4607F153
:1077D000140310461946124A05F05EFD78627B6A72
:1077E000BB61BB69002B01D0BB690AE0FB7A5A1E62
:1077F000FA72002BDAD10B4800210B4A02F05CFB35
:10780000034618462837BD4680BD00BF843100209E
:10781000883100208C310020B0310020B8310020A8
:107820003D76020098650300CD74020080B582B0F9
:1078300000AF00237B600CE00B4B1A687B68DB0019
:1078400013441B781846012105F096FD7B6801332F
:107850007B60064B1B781A467B689A42ECD8002363
:1078600018460837BD4680BD84310020883100208D
:1078700080B487B000AFF860B9607A600123FB750F
:10788000FB7D204AFB6813601E4ABB6853601D4A9B
:107890007B689360FB6844F20102934212D044F289
:1078A0000202934221D17B68164AD360154BDB68F4
:1078B0001B881A46134B9A61124BDB685B68114AAE
:1078C000D36112E07B680F4A13610E4B1B699B6802
:1078D0000C4A53610B4B1B691B680A4A9361094BA5
:1078E0001B695B68074AD36100BF72B600BFFB7DAE
:1078F000DBB2002BFBD162B61C37BD465DF8047BC2
:10790000704700BFC031002000B583B002900091E5
:107910000192034871466A4600F004F803B000BDC6
:1079200001400000F0B58BB004AFF860B9607A6038
:1079300072B6FFF709FC00BFFFF7CCF90346002B36
:10794000FAD1FB6841F2010293421BD041F20102DD
:10795000934202D8012B09D061E044F20102934224
:1079600030D044F20202934218D058E03A4A3B4BDE
:10797000D31ADB081B0443F0010318463849FFF70C
:1079800043F959E0344A354BD31ADB081B0443F062
:10799000010318463349FFF737F94DE07B687B61F7
:1079A0002D4A2E4BD31ADB081B0443F001027B69DE
:1079B0005B681C467B691B8810462B492246FFF7F3
:1079C00045F939E07B683B61234A244BD31ADB0835
:1079D0001B0443F001053B699C683B699B681846A2
:1079E00003F0A4FF03461E463B695B681A463B69E9
:1079F0001B6800920193BB68029328461B492246EC
:107A00003346FFF739F9144A144BD31ADB081B0429
:107A100043F0010318461649FFF7F6F80CE00E4A4A
:107A20000E4BD31ADB081B0443F00103184611491F
:107A3000BA68FFF7F7F800BF0F4B1B6803F00103AC
:107A4000002B00D000BEF868B9687A68FFF710FF15
:107A50001C37BD46F0BD00BF6078030030780300DE
:107A60009C650300BC650300E0650300FC65030042
:107A70002466030038660300F0ED00E080B485B0B2
:107A800000AF78607B689B68FB607B68DA68FB68A6
:107A9000D31A18461437BD465DF8047B704700BF03
:107AA00080B483B000AF78600B46FB707B681A68C7
:107AB0007B68DB68796889880B401344FA781A7010
:107AC0007B68DB685A1C7B68DA600C37BD465DF862
:107AD000047B704780B485B000AFF8600B467A60D5
:107AE0007B81FB681A68FB6899687B890B44F9689D
:107AF00089880B4013441A787B681A701437BD4686
:107B00005DF8047B704700BF80B582B000AF78603D
:107B10003960786800213A68FFF7DCFF7B689B6872
:107B20005A1C7B689A600837BD4680BD80B485B01A
:107B300000AFF860B9601346FB80BB68002B01D131
:107B40000E2319E0FB88002B05D0FB885A1EFB880A
:107B50001340002B01D009230EE0FB68BA681A60BD
:107B6000FB88013B9AB2FB689A80FB6800229A600E
:107B7000FB680022DA60002318461437BD465DF822
:107B8000047B704780B582B000AF78600B46FB7015
:107B90007868FFF773FF02467B689B889A4206D895
:107BA000FB7878681946FFF77BFF002300E0042389
:107BB00018460837BD4680BD80B582B000AF7860FA
:107BC00039607868FFF75AFF0346002B05D07868C4
:107BD0003968FFF799FF002300E0052318460837AE
:107BE000BD4680BD80B483B000AF78607B681B6801
:107BF0001F2B02D84FF0A04306E07B681B6803F000
:107C00001F027B681A60034B18460C37BD465DF8AF
:107C1000047B70470003005080B584B000AF7860EB
:107C2000084611461A460346FB700B46BB701346C6
:107C30007B703B1D1846FFF7D5FFF8607A68F9782E
:107C4000BB785B0019437B789B0019433B7E1B028A
:107C500019433B7F1B041943FB6802F5E07243F8AC
:107C600022101037BD4680BD80B584B002AF786069
:107C7000002300930023019378680121012200234F
:107C8000FFF7CAFF0837BD4680BD00BF90B585B07D
:107C900002AF78600B46FB70FC7800230093002352
:107CA00001937868002100222346FFF7B5FF0C37C7
:107CB000BD4690BD80B584B000AF78603B1D1846CE
:107CC000FFF790FFF8607B681A4601239340F8683D
:107CD000194600F017F81037BD4680BD80B584B056
:107CE00000AF78603B1D1846FFF77CFFF8607B68AB
:107CF0001A4601239340F868194600F011F810372E
:107D0000BD4680BD80B483B000AF786039607B68C9
:107D10003A68C3F808250C37BD465DF8047B704708
:107D200080B483B000AF786039607B683A68C3F88C
:107D30000C250C37BD465DF8047B704780B483B0DA
:107D400000AF786039603A687B68C3F824250C3747
:107D5000BD465DF8047B704780B582B000AF7860A7
:107D60007B680433184606F00BF90837BD4680BD22
:107D700080B58EB000AFF860B9603B601346FB7110
:107D800000237B63BB687B62FB79BB623B68FB6261
:107D900097F840303B63FB681A1D07F12403104637
:107DA0001946002206F032FA78637B6B18463837A2
:107DB000BD4680BD80B588B002AFF8607A601A46D3
:107DC0000B46FB721346BB720D4B93F858301846A6
:107DD000FFF784FFFA7ABB7A00930A48F9687B6858
:107DE000FFF7C6FF78617B693B613B69002B04D0DC
:107DF0003869F021044AFFF787FD1837BD4680BD7A
:107E0000E0310020506603006066030080B500AFDB
:107E1000034B18464FF08041FFF790FF80BD00BF35
:107E20000030004080B489B000AF78607B681B7878
:107E30009B09FB77FB7F012B35D0022B04D0002B55
:107E400002D000BF002342E07B6808331B789B0907
:107E5000DBB21A467B6807331B789B001A447B68A9
:107E600006331B7803F003039B021344BB617B685A
:107E700005331B7803F00F037B617B680A331B78A3
:107E8000DB09DBB21A467B6809331B7803F0030376
:107E90005B0013443B61BB69013379693A690A4469
:107EA000073A934013E07B6809331B781A467B68D6
:107EB00008331B781B021A447B6807331B7803F0D6
:107EC0003F031B041344FB60FB6801339B0218460D
:107ED0002437BD465DF8047B704700BF80B584B091
:107EE00000AF03463960FB711346BB71504B93F8EA
:107EF0002330002B01D0112396E00023FB734C4B61
:107F0000012283F82320FB795BB2002B1DDA0623C4
:107F1000FB73474B022283F82320454B772283F8DB
:107F20002820434B002283F82920414B002283F86C
:107F30002A203F4B002283F82B203D4B002283F860
:107F40002C203B4BFF2283F82D20FB7BFA7902F09B
:107F50007F02D1B2364A13440A4683F82820FB7BBD
:107F600001333A68120ED1B2314A13440A4683F8FB
:107F70002820FB7B02333A68120CD1B22C4A1344FE
:107F80000A4683F82820FB7B03333A68120AD1B2F1
:107F9000274A13440A4683F82820FB7B04333A68B7
:107FA000D1B2234A13440A4683F82820FB79402B98
:107FB00002D0482B03D005E09523BB7305E087234F
:107FC000BB7302E0FF23BB7300BFFB7B0533184A82
:107FD0001344BA7B83F82820BB79022B02D0032BF1
:107FE00005D009E0124B052283F8242009E0104B4C
:107FF000052283F8242004E00D4B012283F824207D
:1080000000BFFB795BB2002B03DB094B93F82430F4
:1080100000E001237B737B7B0E33DBB20548062136
:10802000054AFFF7C7FE002318461037BD4680BD3E
:10803000E0310020083200201832002080B588B0DE
:1080400000AFF8607B600B46FB7213463B81012357
:10805000FB778E4BDB8B40F2D912934200F0C3804A
:10806000B3F5ED7F07DA002B0ED040F2C712934232
:1080700000F0898000E1B3F5F07F00F0D080B3F527
:10808000F67F00F0E880F7E0804B9A8A7F4BDA8237
:10809000CCE07E4B00221A847C4BFF2283F8282000
:1080A0007A4B00221A83794B032283F823206FE056
:1080B000764B1B8C01339AB2744B1A84734B1B8C16
:1080C00044F62062934207D97B6802221A706F4BF4
:1080D0000022DA830223D5E005E0FB680133FB6070
:1080E000FB7A013BFB72FB7A002B03D0FB681B7809
:1080F000FF2BF2D0FB7A002B39D0FB681B78FE2BCC
:108100002DD1FB680133FB60FB7A013BFB725F4BB7
:10811000042283F82320FB7A9AB23B89934228BF3A
:108120001346BB820023BB610BE0584BDA68BB6986
:108130001344F968BA690A4412781A70BB690133AA
:10814000BB61BA8ABB699A42EFD8504ABB8A138393
:108150004E4BDA68BB8A13444C4AD36018E07B6804
:1081600005221A70494B0022DA8302238AE048482C
:108170000121484A1023FFF71DFE0023FB77434BE4
:1081800040F2C712DA83FB7F002B01D1012379E093
:108190003E4B93F82330032B8AD029E03B4B1B8BBB
:1081A0003A89D31AFB82FB8AF02B01D9F023FB8298
:1081B000364BDA68FB8ADBB235480121FFF7FAFD5E
:1081C000324BDA68FB8A1344304AD3602F4B1A8B48
:1081D000FB8A13449AB22D4B1A830023FB772B4B57
:1081E00040F2D912DA83FB7F002B01D1012349E051
:1081F000264B1B8B3A899A42D0D8244BDB8A013B11
:108200009AB2224BDA8222480121224A0223FFF746
:10821000D1FD0023FB771D4B4FF4F072DA83FB7F17
:10822000002B01D101232DE00023FB72174BDB8AC9
:10823000002B7FF42EAF154BFF2283F82820144823
:108240000121144A0223FFF7B5FD0023FB770F4BF2
:108250004FF4F672DA83FB7F002B01D1012311E08A
:108260000A4B002283F823207B6800221A70074BF8
:108270000022DA83022305E00023FB77034B002270
:10828000DA83032318462037BD4680BDE031002045
:10829000083200201832002080B592B000AFF8609C
:1082A0000B467A60FB72FB681B7887F84730FB68E7
:1082B00001331B781A06FB6802331B781B041A4330
:1082C000FB6803331B781B021343FA6804321278ED
:1082D00013433B64012387F84630BA4B9B8BB3F5BD
:1082E0000E7F00F02781B3F50E7F17DC40F21322DA
:1082F000934268D0B3F5057F05DA002B2DD0B3F596
:10830000047F42D069E240F21922934200F0888053
:1083100040F22622934200F0CA805EE240F26122DF
:10832000934200F0DD8140F2612293420ADC40F288
:108330004D22934200F0648140F25322934200F0B8
:1083400091814AE240F26B22934200F0FB8140F2BD
:108350007122934200F017823FE240200021012267
:10836000FFF7BCFDF863FB6BBB63BB6B002B05D059
:10837000B86B40F20F21944AFFF7C6FA002387F842
:108380004630904B4FF404729A8397F84630002B96
:1083900001D1012328E2402000210122FFF79EFDA8
:1083A000F863FB6B7B637B6B002B05D0786B40F233
:1083B0001221854AFFF7A8FA002387F84630814B3F
:1083C00040F213229A8397F84630002B01D1012303
:1083D0000AE297F8473023F00303002B07D07B68AD
:1083E00004221A70774B00229A830223FCE1482072
:1083F0004FF4D5710322FFF771FDF863FB6B3B630C
:108400003B6B002B05D0386B4FF406716E4AFFF7BB
:108410007BFA002387F846306A4B40F219229A8390
:1084200097F84630002B01D10123DDE197F8473062
:1084300003F00403002B13D1624A937A032161F302
:108440000203937297F8473023F00303002B07D001
:108450007B6804221A705B4B00229A830223C3E1DB
:10846000584B00221A84574B9B7A03F00703DBB268
:10847000032B02D14FF0804300E00023FB62E92090
:10848000F96A0222FFF72AFDF863FB6BBB62BB6A45
:10849000002B05D0B86A40F225214B4AFFF734FA89
:1084A000002387F84630474B40F226229A8397F8FC
:1084B0004630002B01D1012396E197F8473003F0B5
:1084C0000403002B51D03F4A937A012161F3020348
:1084D000937297F8473023F0040387F84730394BFD
:1084E0001B8C01339AB2374B1A84364B1B8CB3F575
:1084F000FA6F07D97B6802221A70324B00229A83E6
:10850000022371E1412000210222FFF7E7FCF8631A
:10851000FB6B7B627B6A002B05D0786A40F23721C7
:10852000294AFFF7F1F9002387F84630254B4FF42D
:108530000E729A8397F84630002B01D1012353E144
:1085400097F8473023F00303002B07D07B68042201
:108550001A701C4B00229A83022345E197F847309A
:1085600003F00103002BBAD19AE097F8473023F0CB
:108570000303002B07D07B6804221A70114B0022E2
:108580009A83022330E14FE00E4B1B8C01339AB2E9
:108590000C4B1A840B4B1B8CB3F5FA6F07D97B6815
:1085A00002221A70074B00229A8302231CE1054B1A
:1085B0009B7A03F00703DBB2032B07D14FF0804314
:1085C00005E000BFE0310020606603000023FB628D
:1085D000E920F96A0222FFF781FCF863FB6B3B623A
:1085E0003B6A002B05D0386A4FF41371804AFFF7BD
:1085F0008BF9002387F846307E4B40F24D229A8358
:1086000097F84630002B01D10123EDE097F8473071
:1086100023F00303002B07D07B6804221A70754BEC
:1086200000229A830223DFE097F8473003F001032A
:10863000002BA9D17A2000210222FFF74FFCF8631A
:10864000FB6BFB61FB69002B05D0F86940F25221FE
:10865000674AFFF759F9002387F84630654B40F227
:1086600053229A8397F84630002B01D10123BBE0B7
:1086700097F8473023F00303002B07D07B680422D0
:108680001A705C4B00229A830223ADE03B6C03F02E
:108690008043002B04D0574A937A43F00803937227
:1086A000544B9B7A03F00703DBB2032B2CD05020F2
:1086B0004FF400710122FFF711FCF863FB6BBB6103
:1086C000BB69002B05D0B8694FF41871484AFFF711
:1086D0001BF9002387F84630464B40F261229A830B
:1086E00097F84630002B01D101237DE097F8473001
:1086F00023F00303002B07D07B6804221A703D4B44
:1087000000229A8302236FE03A4B3B4ADA60394BEE
:1087100001229A82492000210122FFF7DFFBF86342
:10872000FB6B7B617B69002B05D0786940F26A2185
:108730002F4AFFF7E9F8002387F846302D4B40F227
:108740006B229A8397F84630002B01D101234BE02E
:1087500097F8473023F00303002B07D07B680422EF
:108760001A70244B00229A8302233DE0FB680133F8
:10877000FB60FB7A013BFB721E4B0022DA831D4B30
:1087800040F271229A83FA7A07F11303F8681146CE
:108790001022FFF753FC0346012B01D8002323E0EE
:1087A000FB7C002B07D0FA7C7B681A70114B0022EF
:1087B0009A83022318E01048FFF734FB02460D4B62
:1087C0005A600C4B4FF400721A817B6800221A70B9
:1087D000084B00229A83022306E0002387F84630E4
:1087E000044B00229A83032318464837BD4680BDB8
:1087F00060660300E03100202832002080B588B098
:1088000000AFF8600B467A60FB720123FB773A4BAE
:108810009B8B40F29A22934222D040F2A2229342B2
:1088200052D0002B5DD1FB681B78BB77BB7F23F058
:108830000303002B07D07B6804221A702E4B002202
:108840009A83022353E0FB680133FB60FB7A013B10
:10885000FB72294B0022DA83274B40F29A229A833B
:10886000FA7A07F11303F86811464FF40072FFF724
:10887000E5FB0346012B01D8002338E0FB7C002BED
:1088800007D0FA7C7B681A701B4B00229A83022364
:108890002DE0194B9B8A012B1BD94C200021012272
:1088A000FFF71CFBB861BB697B617B69002B05D0BE
:1088B000786940F2A121114AFFF726F80023FB77DF
:1088C0000D4B40F2A2229A83FB7F002B01D10123A2
:1088D0000DE07B6800221A70074B00229A83022366
:1088E00005E00023FB77044B00229A8303231846FC
:1088F0002037BD4680BD00BFE03100206066030028
:1089000080B58CB000AFF8600B467A60FB72012333
:1089100087F82F30A64B9B8BB3F5397F00F0C880CA
:10892000B3F5397F0BDC40F2C322934255D040F2BD
:10893000D322934200F09080002B17D0C7E140F281
:108940000A32934200F0208140F20A32934204DC62
:10895000B3F53B7F00F0CE80B9E1B3F5487F00F07E
:108960005F81B3F54C7F00F08A81B0E1FB681B7832
:1089700087F8233097F8233023F00303002B07D028
:108980007B6804221A708A4B00229A830223A5E195
:10899000874B9B7A03F00703DBB2012B35D0844B66
:1089A0009B8A012B31D9824B1B6959201946012220
:1089B000FFF794FAF861FB69BB61BB69002B05D036
:1089C000B86940F2C2217B4AFEF79EFF002387F878
:1089D0002F30774B40F2C3229A8397F82F30002B29
:1089E00001D101237AE1FB681B7887F8233097F8DF
:1089F000233023F00303002B07D07B6804221A7076
:108A00006B4B00229A83022368E1694B9A8A684B78
:108A1000DA82E7E0664B00221A83654B042283F872
:108A20002320634BFF2283F82820614B9B8A012B74
:108A300001D9FC2200E0FE225D4B83F829205E482C
:108A400002215E4A0223FFF7B5F9002387F82F3091
:108A5000574B40F2D3229A8397F82F30002B01D145
:108A600001233BE12AE0524B1B8BC3F50073BB850E
:108A7000BB8DF02B01D9F023BB854D4BDB684C4AF5
:108A8000128B1A44BB8DDBB2104619464B4A0123A8
:108A9000FFF790F9464B1A8BBB8D13449AB2444BA7
:108AA0001A83002387F82F30414B4FF439729A8391
:108AB00097F82F30002B01D101230FE13C4B1B8B8A
:108AC000B3F5007FCFD33A4BDB6803F50073384A28
:108AD000D360374B032283F8232037480121374ADC
:108AE0000323FFF767F9002387F82F30304B4FF44B
:108AF0003B729A8397F82F30002B01D10123EDE0D0
:108B00002B4B93F83A3003F01F03FB75FB7D052BCD
:108B100015D0FB7D0B2B02D0FB7D0D2B07D17B6885
:108B200005221A70224B00229A830223D6E07B682A
:108B300004221A701E4B00229A830223CEE01C4BA3
:108B400000221A8443E01A4B1B8C01339AB2184B53
:108B50001A84174B1B8C44F62062934207D97B681A
:108B600002221A70124B00229A830223B6E01248A6
:108B70000121124A1023FFF71DF9002387F82F3037
:108B80000B4B40F20A329A8397F82F30002B01D119
:108B90000123A3E00023BB6215E0FA68BB6A13441B
:108BA0001B78002B0CD0024B002283F823200EE010
:108BB000E0310020606603000832002018320020F7
:108BC000BB6A0133BB62FA7ABB6A9A42E5D8454B6D
:108BD00093F82330032BB6D0424BDB8A013B9AB289
:108BE000404BDA823F4BDB8A002B7FF413AF3D4BC7
:108BF0009B8A012B63D93B4BFF2283F82820394BFA
:108C0000FD2283F8292038480221384A0323FFF740
:108C1000D1F8002387F82F30324B4FF448729A83F3
:108C200097F82F30002B01D1012357E02D4B002264
:108C30001A842C4B032283F823203BE0294B1B8C06
:108C400001339AB2274B1A84264B1B8C44F62062C0
:108C5000934207D97B6802221A70224B00229A8322
:108C600002233BE020480121204A1023FFF7A2F80D
:108C7000002387F82F301B4B4FF44C729A8397F8E0
:108C80002F30002B01D1012328E000237B620DE06F
:108C9000FA687B6A13441B78002B04D0114B002226
:108CA00083F8232006E07B6A01337B62FA7A7B6AD1
:108CB0009A42EDD80B4B93F82330032BBED07B6840
:108CC00000221A70074B00229A83022306E0002339
:108CD00087F82F30034B00229A830323184630373E
:108CE000BD4680BDE031002008320020183200204F
:108CF00080B58CB000AF786039607B68DB68FB6260
:108D00007B681B7C87F82B30B94BDB8A002B05D1A5
:108D1000B74B93F858301846FEF7CCFFB44B93F896
:108D20002330022B05D0B24B93F82330012B40F0B7
:108D3000B68097F82B30063B87F82B30FB6A06335A
:108D4000FB627B685B681B784C2B0BD197F82B3050
:108D5000002B07D097F82B30013B87F82B30FB6AAC
:108D60000133FB6207E097F82B30013B87F82B308B
:108D7000FB6A0133FB6297F82B30002B03D0FB6AB0
:108D80001B78FF2BEFD097F82B30002B0FD17B688F
:108D90005B681B784C2B08D197F82B30013387F890
:108DA0002B30FB6A013BFB6201E00023FB62FB6AA4
:108DB000002B54D18E4B93F82230DBB2012B4ED0D6
:108DC00001237B738A4B93F82230DBB2013B042BE7
:108DD00026D801A252F823F0ED8D0200ED8D02009D
:108DE000218E0200158E02001B8E020000233B73B1
:108DF0007F4B032283F8222000F090FA78627B6A8E
:108E0000002B06D0786A40F283317A4AFEF77CFD67
:108E100013E012E001233B730FE002233B730CE0ED
:108E200003233B623B6A002B06D0386A4FF4637120
:108E3000704AFEF769FDFFE700BF6D4B93F85830AD
:108E40001846FEF737FF6A4B032283F82220684B4F
:108E50001B6807F10C021046984700BFDEE0644B28
:108E600093F82330022B16D1614B012283F8232083
:108E7000FB6A1B78FB77FB7F23F00103002B0AD1F1
:108E80005B4B93F824300E33DBB25B4806215B4A20
:108E9000FEF790FFC2E0564B002283F82320062302
:108EA000FB74534B93F82230DBB2013B042B00F2EE
:108EB000A78001A252F823F0CD8E0200DB8E0200C3
:108EC00001900200418F0200998F0200484B02225C
:108ED00083F82220464B00229A8397F82B2007F133
:108EE0001303F86A11461A46FFF7D6F90346012B19
:108EF00025D900233B74FB7C7B743D4B032283F814
:108F000022203B4B93F858301846FEF7D3FEFB7CEB
:108F1000002B0BD000F002FAB861BB69002B05D022
:108F2000B86940F2B731334AFEF7EEFCFEF76EFF48
:108F30002F4B1B6807F11002104698476DE06CE05C
:108F400097F82B2007F11303F86A11461A46FFF72A
:108F500055FC0346012B1ED901233B74FB7C7B741B
:108F6000234B032283F82220214B00229A82204B9C
:108F70000022DA821E4B002283F823201C4B93F838
:108F800058301846FEF796FE194B1B6807F1100281
:108F90001046984741E040E097F82B2007F1130373
:108FA000F86A11461A46FFF7ABFC0346012B1ED99F
:108FB00002233B74FB7C7B740D4B032283F822203D
:108FC0000B4B002283F82320094B00229A82084B86
:108FD0000022DA82064B93F858301846FEF76AFEF4
:108FE000034B1B6807F110021046984715E014E088
:108FF000E0310020606603000E32002018320020AD
:1090000003237B617B69002B06D078694FF476716E
:10901000044AFEF779FCFFE700BF00BF3037BD46CA
:1090200080BD00BF6066030080B588B000AFF86007
:10903000B9601346FB802A4B93F82230DBB2002B39
:1090400001D1082347E0264B93F82230DBB2032BF3
:1090500001D011233FE0FB88002B01D107233AE028
:109060001F4B042283F822201D4B9B7A03F0080338
:10907000DBB2002B04D1BB685B02194A136102E02A
:10908000174ABB681361164AFB68D360144AFB8811
:109090009382134AFB88D382114B00229A83FB8868
:1090A000012B01D9522300E05123FB770C4B1B69A4
:1090B000FA7F104619460122FEF710FFB861BB691E
:1090C0007B617B69002B05D0786940F20241054A3B
:1090D000FEF71AFC002318462037BD4680BD00BFAE
:1090E000E03100206066030080B588B000AFF86012
:1090F000B9601346FB80394B93F82230DBB2002B6A
:1091000001D1082366E0354B93F82230DBB2032B04
:1091100001D011235EE0FB88002B01D1072359E029
:109120002E4B052283F822202C4B9B7A03F0080358
:10913000DBB2002B04D1BB685B02284A136102E05A
:10914000264ABB681361254AFB68D360234AFB8823
:109150009382224AFB88D382204B00229A83FB8889
:10916000012B14D11D4B1B69582019460122FEF713
:10917000B5FEF861FB69BB61BB69002B05D0B8691E
:1091800040F22D41164AFEF7BFFB002322E0134BAD
:109190009B7A03F00703DBB2012B08D10F4B1B694D
:1091A000592019460122FEF799FEF86106E0FB8876
:1091B000D72019460122FEF791FEF861FB697B6119
:1091C0007B69002B05D0786940F23C41044AFEF7E8
:1091D0009BFB002318462037BD4680BDE0310020B0
:1091E0006066030080B58CB002AF78603960454B93
:1091F00093F82230DBB2002B01D008237DE03B68DE
:10920000002B0FD07B68DB78FF2B0BD07B685B7863
:10921000FF2B07D07B681B78FF2B03D07B689B78E4
:10922000FF2B01D1072368E07B68DA78354B83F8A0
:109230005820344B93F858301846FEF715FD314B43
:1092400093F858301846FEF735FD7B689B783B73E2
:109250007B681B787B737B685B78BB73FF23FB7336
:1092600006233B74FF237B744FF080637B610023F4
:109270003B7600237B7607F10C0323481946234AEB
:10928000002303F04FF978627B6A3B623B6A002B54
:1092900005D0386A40F265411D4AFEF735FB194A90
:1092A0003B681360174B012283F82220154A937AFA
:1092B0006FF302039372134A937A6FF3C3039372AB
:1092C000104B002283F823200E4BFF2283F8282026
:1092D0000A2300930C480F4901220F4BFEF748FD6B
:1092E00078627B6AFB61FB69002B05D0F86940F26C
:1092F0007141074AFEF708FB002318462837BD4690
:1093000080BD00BFE031002050660300F18C0200F8
:1093100060660300083200201832002080B500AFDC
:10932000124B93F82230DBB2002B01D108231AE054
:109330000E4B93F82230DBB2032B01D0112312E045
:109340000B48FEF709FD094B93F8583018460021E9
:10935000FEF79CFC054B002283F82320034B0022E0
:1093600083F822200023184680BD00BFE031002092
:109370005066030080B400AF0B4B93F82230DBB291
:10938000032B07D0084B93F82230DBB2002B01D01F
:10939000012300E0002303F00103DBB21846BD46C1
:1093A0005DF8047B704700BFE031002080B400AF5F
:1093B000064B93F82230DBB2022B01D9044B00E0BC
:1093C00000231846BD465DF8047B7047E03100205D
:1093D000E431002080B483B000AF0346FB7108493C
:1093E00097F907305B09FA7902F01F02012000FAB1
:1093F00002F241F823200C37BD465DF8047B70472C
:1094000000E100E080B483B000AF0346FB7109497E
:1094100097F907305B09FA7902F01F02012000FA80
:1094200002F2203341F823200C37BD465DF8047B5F
:10943000704700BF00E100E080B483B000AF034696
:10944000FB71094997F907305B09FA7902F01F02AD
:10945000012000FA02F2403341F823200C37BD46C8
:109460005DF8047B704700BF00E100E080B483B08A
:1094700000AF0346FB71094997F907305B09FA7998
:1094800002F01F02012000FA02F2603341F82320AB
:109490000C37BD465DF8047B704700BF00E100E07B
:1094A00080B483B000AF03463960FB7197F9073091
:1094B000002B0BDA0D49FB7903F00F03043B3A68EC
:1094C000D2B25201D2B20B441A7609E0084997F998
:1094D00007303A68D2B25201D2B20B4483F800236B
:1094E0000C37BD465DF8047B704700BF00ED00E01F
:1094F00000E100E080B584B000AF78607B68002BAD
:1095000000D109E0064B43F00103FB607B689B013F
:10951000BB60FB68B86898471037BD4680BD00BF88
:10952000C066030080B582B000AF7860054A7B68F2
:10953000C2F8083511200621FFF7B2FF0837BD46F3
:1095400080BD00BF0010014080B500AF0C4B4FF450
:109550008032C3F844230A4B4FF48032C3F804230B
:109560001120FFF783FF1120FFF734FF044B012286
:109570001A602F20FFF7BEFF024B01221A7080BD38
:10958000001001405A33002080B500AF1120FFF7D2
:1095900039FF0E4B4FF48032C3F848230B4B4FF486
:1095A0008032C3F80823094B01225A602F20FFF7AD
:1095B000A1FF064B01229A60054B00221A602F2062
:1095C000FFF798FF034B00221A7080BD0010014086
:1095D0004C3300205A33002080B400AF034BD3F843
:1095E00004351846BD465DF8047B70470010014005
:1095F00080B483B000AF786039607A683B68D31A72
:1096000023F07F4318460C37BD465DF8047B704756
:1096100080B483B000AF7860044A7B68C2F84035FC
:109620000C37BD465DF8047B704700BF0010014059
:1096300080B487B000AF7860294B1B68002B03D142
:10964000274A7B68136045E07B681A68244B1B68D7
:109650001B689A4210D8224B1B68214A1268116875
:109660007A6812688A1A1A601D4B1A687B68DA6178
:109670001B4A7B6813602DE07B681B68FB60184BFE
:109680001B687B61164B1B683B6109E03B691B68EB
:10969000FA68D31AFB603B697B613B69DB693B611C
:1096A0003B69002B04D03B691A68FB689A42EDD3F2
:1096B0003B69002B05D03B691A68FB68D21A3B69ED
:1096C0001A607B68FA681A607B683A69DA617B69BC
:1096D0007A68DA611C37BD465DF8047B704700BFCD
:1096E0004833002080B586B000AF7860294B1B68F6
:1096F000FB60284B1B687B617B693B6109E03A6931
:109700007B689A4200D107E03B697B613B69DB697A
:109710003B613B69002BF2D13B69002B01D1002357
:1097200033E07A693B699A4214D11A4B1B68DB69B2
:10973000184A1360174B1B68002B0BD1164B0122E4
:109740009A60164B00221A60154B01221A702F20C6
:10975000FFF7D0FE3B691B68BB603B69DA697B6938
:10976000DA617B69DB693B613B69002B05D03B69B2
:109770001A68BB681A443B691A60064B1B68FA6892
:109780009A4214BF01230023DBB218461837BD46A6
:1097900080BD00BF48330020001001404C33002042
:1097A0005B33002080B500AF1120FFF745FE80BD80
:1097B00080B500AF1420FFF73FFE80BD80B582B0BA
:1097C00000AF78607B685B697A6892691046984759
:1097D0000837BD4680BD00BF80B584B000AF2A4BBE
:1097E0001B68002B4DD000237B60FFF7F5FE02467F
:1097F000264B1B6810461946FFF7FAFEB860224B4D
:109800001B68FB601EE0FB681A68BB689A4200D9BF
:109810001BE0FB681B68BA68D31ABB60FB681B6857
:109820007A6813447B60FB683B60FB68DB69FB6024
:109830003B681B7C002B05D03B6800221A743868FB
:10984000FFF7BCFFFB68002BDDD1114B1A78114BE1
:109850001B789A420CD10F4B1B780133DAB20D4BB7
:109860001A700C4B1B78022B02D10A4B00221A7083
:10987000084B1B781946084A7B6842F82130FFF7ED
:1098800097FF1037BD4680BD483300204C33002081
:1098900058330020593300205033002080B483B067
:1098A00000AF7860194B1A78194B1B789A4223D075
:1098B000164B1B780133DAB2144B1A70134B1B781A
:1098C000022B02D1114B00221A70104B1B781A4642
:1098D000104B53F822207B681A607B681A680E4B85
:1098E0001B6813440C4A13600B4B1B6823F07F4327
:1098F000094A1360012303E07B6800221A600023F9
:1099000018460C37BD465DF8047B7047583300207D
:1099100059330020503300204C33002080B489B0EC
:1099200000AFF860B9607A600023FB6138E0214B3A
:109930001B68BB61BB691A68FB689A4206D9BB69A0
:109940001A68FB68D21ABB691A602DE0BB691B68F4
:10995000FA68D31AFB60BB691B68FA691344FB61A0
:10996000BB6900221A60134B1B687B61BB69DB6912
:10997000104A1360BB69DB68002B11D0BA68FB6921
:10998000134423F07F42BB695A60BB69DA68BB6944
:109990009A607B681A68BB69DA617B687A691A60C9
:1099A000044B1B68002BC2D12437BD465DF8047BF5
:1099B000704700BF4833002080B588B000AF7860A2
:1099C0000023FB77654B1B687B61A9E07B68002B5C
:1099D00005D07B68BB61BB69DB697B6060E0604B85
:1099E0001B781A4613465B001344DB005C4A1344A1
:1099F00004333B615A4B1B780133DAB2584B1A706F
:109A0000574B1A78564B9B789A4202D1544B0022FE
:109A10001A703B695B68BB613B691B78022B04D001
:109A2000032B1AD0012B1ED01CE03B695B68184643
:109A3000FFF758FE0346002B01D00123FB77BB69DB
:109A400000221A746CE0454B1B68FB60FB68002227
:109A50001A74FB68DB69414A1360404B1B68002B9A
:109A6000F1D15DE05CE000BFBB691B7C002B00D046
:109A700056E03B699A68BB695A603B69DA68BB6922
:109A80009A603B691A69BB69DA603B695A69BB69CC
:109A90009A61344B1B78002B02D0BB6900225A60BC
:109AA000BB695A68304B1B68D31A23F07F432F4A97
:109AB00093420ED8BB695A682B4B1B681046194657
:109AC000FFF796FD0246BB699B681A44BB691A60A2
:109AD00017E0254B1A68BB695B6810461946FFF70B
:109AE00087FDB860BB699A68BB689A4206D9BB69B2
:109AF0009A68BB68D21ABB691A6002E0BB6900228F
:109B00001A60BB6900225A60BB6900229A60BB6977
:109B100001221A74BB690022DA61B869FFF788FD77
:109B20007B68002B7FF452AF0D4B1A780C4B5B789F
:109B30009A427FF44BAFFB7F002B04D1074B1A688E
:109B40007B699A4201D0012300E0002303F0010366
:109B5000DBB218462037BD4680BD00BF4833002029
:109B60003C3200205B3300204C330020FEFF7F009E
:109B700090B589B000AF7860274B1B68002B45D0AB
:109B8000254B1B681B68FB61FFF726FDB861234B63
:109B90001B687B61B8697969FFF72AFD03460333C7
:109BA0003B611F4B1B7883F00103DBB2002B01D01C
:109BB000FFF7CAFC3A69FB69934238BF13467A69DA
:109BC00013447B617B6923F07F437B617869FFF7F6
:109BD0001FFDFFF701FDF860F868B969FFF708FDA0
:109BE0000346DC1C7869B969FFF702FD03469C4215
:109BF0000BD9FFF7F1FC03461846FFF709FD2F20AC
:109C0000FFF778FCFFF7CEFD02E001E0FFF7BCFCB8
:109C10002437BD4690BD00BF483300204C330020A0
:109C20005A33002080B586B000AF00237B6000234C
:109C3000FB75164B1B683B61154B1B68FB603B4675
:109C40001846FFF72BFE0346FB72FB7A002B08D069
:109C50003A683B1D104639691A46FFF75FFE01233B
:109C6000FB757B681846FFF7A7FE0346002B01D063
:109C70000123FB75FB7D002B02D0F868FFF778FF0E
:109C8000044B00221A701837BD4680BD4C330020AB
:109C9000483300205B33002080B483B000AF03461C
:109CA000FB71044AFB7953700C37BD465DF8047BA9
:109CB000704700BF3C32002080B485B000AF7860B0
:109CC000134B5B780133FB73114B9B78FA7B9A4201
:109CD00001D10023FB730E4B1B78FA7B9A4201D112
:109CE00000230EE07B68FA7B1A70094B5B781A46FA
:109CF00013465B001344DB00054A13440433BB6086
:109D0000BB6818461437BD465DF8047B704700BF3A
:109D10003C32002080B588B000AFF860B9607A604E
:109D20003B600023FB610023BB7507F11603184657
:109D300000F0DAFB07F117031846FFF7BDFFB86123
:109D4000BB69002B02D10423FB6117E0BB69012230
:109D50001A70BB69FA685A60FFF73EFC0246BB699D
:109D60009A60BB69BA68DA60BB697A681A61BB69D4
:109D70003A685A61FB7D1846FFF78EFFBB7D184697
:109D800000F0BCFBFB69002B01D1FFF711FDFB6963
:109D900018462037BD4680BD80B586B000AF7860DC
:109DA0000B46FB7000237B610023BB7307F10E039E
:109DB000184600F099FB07F10F031846FFF77CFFE8
:109DC00038613B69002B02D104237B6109E03B69C8
:109DD000FA781A703B697A685A60FB7B1846FFF77D
:109DE0005BFFBB7B184600F089FB7B69002B01D130
:109DF000FFF7DEFC7B6918461837BD4680BD00BF03
:109E000080B500AF0D4B0022C3F840210B4B002260
:109E1000C3F84421094B0022C3F84821074B002214
:109E2000C3F84C21054B0022C3F80021034B00224C
:109E3000C3F80421FFF7D0FC80BD00BF0010014033
:109E400080B500AFFFF7EEFE80BD00BF80B500AF6C
:109E5000FFF79AFB134B00221A70124B00225A7024
:109E6000104B0B229A70104B00221A600F4B0022ED
:109E70001A700F4B00221A701420FFF7F7FA142003
:109E80000621FFF70DFB1420FFF7A4FA0020FFF7CF
:109E900049FBFFF7A1FB0246064B1A600023184658
:109EA00080BD00BF3C3200204833002058330020E2
:109EB000593300204C33002080B487B000AFF860E5
:109EC0000B467A60FB72154B9B78002B01D108235F
:109ED0001DE07B68002B01D1072318E0FB68002BF5
:109EE00001D1072313E0FB681B681B7C002B01D00A
:109EF00008230CE0FB681B687B617B6900221A74F5
:109F00007B69FA7A5A747B697A685A610023184629
:109F10001C37BD465DF8047B704700BF3C32002013
:109F200080B586B000AFF860B9607A60FB687B618D
:109F3000144B9B78002B01D108231EE0FB68002BFB
:109F400001D1082319E0BB68042B01D8072314E0D2
:109F50007B695B69002B01D108230EE07B695B7C88
:109F6000012B01D1BB6800E000233B617869B9682F
:109F70003A697B68FFF7CEFE034618461837BD46A0
:109F800080BD00BF3C32002080B584B000AF786057
:109F90007B68FB600D4B9B78002B01D1082310E000
:109FA0007B68002B03D0FB685B69002B01D1082381
:109FB00007E0FB6800221A74F8680221FFF7ECFE44
:109FC000034618461037BD4680BD00BF3C32002016
:109FD00080B586B000AFF860B9601346FB7100230E
:109FE0007B61FB681B781A46114B9B5C002B09D0E8
:109FF000FB681A1DFB791046B9681A4605F00EFB7E
:10A00000786110E0FB681B781A46094B9B5C002BBB
:10A0100009D1FB6803F10C02FB791046B9681A46B6
:10A0200004F0BEFC78617B6918461837BD4680BDD8
:10A03000A441002080B584B000AF78600023FB739A
:10A040007B681B781A460F4B9B5C002B07D07B6804
:10A050000433184605F062FB0346FB730DE07B6892
:10A060001B781A46074B9B5C002B06D17B680C3390
:10A07000184604F001FD0346FB73FB7B18461037BE
:10A08000BD4680BDA441002080B586B000AFF86019
:10A09000B9601346FB7100237B61FB681B781A468D
:10A0A000114B9B5C002B09D0FB681A1DFB791046F5
:10A0B000B9681A4605F04EFB786110E0FB681B7822
:10A0C0001A46094B9B5C002B09D1FB6803F10C027B
:10A0D000FB791046B9681A4604F030FD78617B6957
:10A0E00018461837BD4680BDA441002080B485B015
:10A0F00000AF78607B689B68FB607B68DA68FB6810
:10A10000D31A18461437BD465DF8047B704700BF6C
:10A1100080B586B000AF786039607B681B78012B12
:10A1200004D0022B38D0002B47D05CE07B685B6802
:10A130001B782E481946FDF725FD78617B69002BB9
:10A140000AD001233B737B693B61294B1B6807F1F4
:10A150000C02104698470DE02448FFF7C7FF03465E
:10A16000002B07D000233B73214B1B6807F10C0227
:10A17000104698471D48FFF7B9FF02461B4B9B88C6
:10A180009A4205D81B481C490122FFF77DFF2AE0AF
:10A190001A4B01221A7026E002233B737B68DB68AE
:10A1A0003B61144814490122FFF76EFF104B1B68F6
:10A1B00007F10C021046984715E011481149FDF7C8
:10A1C000FBFC0346002B05D10A480E490122FFF78C
:10A1D000FFFE07E003233B73054B1B6807F10C02EE
:10A1E0001046984700BF1837BD4680BD6833002031
:10A1F0005C330020D82A002064330020653300201F
:10A200007833002060330020B0B590B000AFF86024
:10A21000B9607A60FB703E4A7B681360BB68002BB4
:10A2200001D1072370E0BB681A68BB685B689BB20A
:10A23000384811461A46FDF779FCF863FB6BBB639F
:10A24000BB6B002B01D0BB6B5EE0BB689A68BB6840
:10A25000DB689BB2304811461A46FDF767FCF8638D
:10A26000FB6B7B637B6B002B01D07B6B4CE02B4B40
:10A2700007F110041D460FCD0FC495E80F0084E8C8
:10A280000F00FB685B69BB62FB681B7C002B14BF83
:10A2900001230023DBB287F82430FB7887F82C30C9
:10A2A000FB685B7C002B01D00E2300E0002387F8C5
:10A2B0002530FB68DB68BB61FB689B68FB61FB6862
:10A2C0001B687B61FB685B683B6107F11003144806
:10A2D0001946144A02F0C8F9F863FB6B3B633B6B09
:10A2E000002B01D03B6B0FE00F4B00221A70FB6874
:10A2F0001B68B3F1FF3F06D009480C490122FFF764
:10A30000C3FE034600E0002318464037BD46B0BDFB
:10A310005C3300206833002078330020C8660300D7
:10A32000D82A002011A102006533002064330020E8
:10A3300080B586B000AF7860114B1B78FB75114873
:10A340007968FDF739FC3861FB7D002B12D00C4B8E
:10A3500000221A700C480D490122FFF795FEF860A3
:10A36000FB68BB60BB68002B04D0B868CE21084AEC
:10A37000FDF7CAFA3B6918461837BD4680BD00BFD5
:10A380006533002068330020D82A00206433002081
:10A39000E866030080B584B000AF0346FB71FB792B
:10A3A00011481946FDF7EEFBF860FB68002B15D14C
:10A3B0000E48FFF73FFE034683F00103DBB2002B9C
:10A3C0000CD009480A49FDF7F7FB0346002B05D1DD
:10A3D000064807490122FFF7FBFDF860FB681846B5
:10A3E0001037BD4680BD00BF78330020D82A00203A
:10A3F0006033002080B483B000AFEFF310833B6084
:10A400003B687B6072B67B6818460C37BD465DF8CA
:10A41000047B704780B400AF62B6BD465DF8047B34
:10A42000704700BF80B584B000AF7860FFF7E2FFEF
:10A43000F860164B9B68002B1BD1144B01229A60CD
:10A44000134BD3F88020134B1340104A1360104B6A
:10A45000104AC3F880200E4BD3F884300B4A536067
:10A460000B4B4FF0FF32C3F884207B6800221A7038
:10A4700002E07B6801221A70FB68002B01D1FFF714
:10A48000C9FF002318461037BD4680BD9841002003
:10A4900000E100E0FC06FFBD80B584B000AF0346DC
:10A4A000FB710F4B9B68002B15D0FB79002B12D151
:10A4B000FFF7A0FFF8600B4A094B1B681360094ABD
:10A4C000074B5B685360064B00229A60FB68002BC9
:10A4D00001D1FFF79FFF002318461037BD4680BD0E
:10A4E0009841002000E100E080B582B000AF7860C4
:10A4F0007868FFF797FF0837BD4680BD80B582B00A
:10A5000000AF0346FB71FB791846FFF7C5FF08371C
:10A51000BD4680BD80B584B000AF786039603B68CF
:10A520005B099B007A68D1183B6803F01F03012286
:10A5300002FA03F30846194600F054F8F8601037A1
:10A54000BD4680BD80B584B000AF786039603B689F
:10A550005B099B007A68D1183B6803F01F03012256
:10A5600002FA03F3DB430846194600F06FF8F8607F
:10A570001037BD4680BD00BF80B483B000AF7860A7
:10A5800039603B685B099B007A6813441A683B6832
:10A5900003F01F0322FA03F303F00103002B14BF9F
:10A5A00001230023DBB218460C37BD465DF8047B5F
:10A5B000704700BF90B486B000AF786039607B68A8
:10A5C0003A6853E8004F104643E8000191F0000F4D
:10A5D000F7D17C613861F9607B6918461837BD4650
:10A5E00090BC704790B486B000AF786039607B68EB
:10A5F0003A6853E8004F44EA020043E8000191F052
:10A60000000FF6D17C613861F9603B691846183754
:10A61000BD4690BC704700BF90B486B000AF786074
:10A6200039607B683A6853E8004F04EA020043E867
:10A63000000191F0000FF6D17C613861F9607B690F
:10A6400018461837BD4690BC704700BF90B486B01E
:10A6500000AF786039607B683A6853E8004F04EADD
:10A66000020043E8000191F0000FF6D17C613861EF
:10A67000F9603B6918461837BD4690BC704700BF6B
:10A6800090B486B000AF786039607B683A6853E870
:10A69000004F04EB020043E8000191F0000FF6D1F7
:10A6A0007C613861F9603B6918461837BD4690BC3B
:10A6B000704700BF90B486B000AF786039607B68A7
:10A6C0003A6853E8004FA4EB020043E8000191F020
:10A6D000000FF6D17C613861F9603B691846183784
:10A6E000BD4690BC704700BF80B582B000AF7860B7
:10A6F00078680121FFF776FF034618460837BD4604
:10A7000080BD00BF80B582B000AF7860786800215E
:10A71000FFF782FF034618460837BD4680BD00BFDD
:10A7200080B483B000AF78600B46FB707B68DA685A
:10A73000FB787968098A01FB03F3134418460C3748
:10A74000BD465DF8047B704780B483B000AF78608D
:10A7500039603B687A68D2689B1A7A68128AB3FBC0
:10A76000F2F3DBB218460C37BD465DF8047B704748
:10A7700080B485B000AF78607B68002B01D10E23D8
:10A780001DE07B689B681A467B685B68D31AFB7385
:10A790007B681B687A6852681A6006E07B681A68F2
:10A7A0001368591C1160FA7B1A70FB7B5A1EFA73EE
:10A7B000002BF3D17B681B6800221A710023184616
:10A7C0001437BD465DF8047B704700BF80B584B088
:10A7D00000AF78600023FB600023BB7207F10A031F
:10A7E0001846FFF781FE7B681B681A687B685B6808
:10A7F0009A421DD97B681B681A68013A1A601B6867
:10A800001B7878681946FFF78BFFF8607B689B68B8
:10A810001A467B681B681B68D31AFB727B681B682F
:10A820001B79FA7A9A4203D97B681B68FA7A1A7103
:10A83000BB7A1846FFF762FEFB6818461037BD4624
:10A8400080BD00BF90B585B000AF786039603B68CF
:10A85000FB600023FB7207F10B031846FFF744FE71
:10A860007B681B681C68621C1A607868F968FFF7CF
:10A870006BFF03462370FB7A1846FFF73FFE143741
:10A88000BD4690BD80B400AFBD465DF8047B704707
:10A8900080B500AF01E0FFF7F5FFFEF76BFD034663
:10A8A000002BF8D180BD00BF80B58EB000AF7860BE
:10A8B0007B685A78444B1A70444B1B687B637B6BF4
:10A8C0009B693B637B681B78012B2ED0022B4CD0FD
:10A8D000002B6AD1FEF76AFD03461A683B6B1A60CB
:10A8E0003B6B4FF400725A60384B1B689B699B6846
:10A8F000002B19D0002387F820307B685B78002B71
:10A9000014BF01230023DBB287F8213000237B62D0
:10A910003B6B9B69BB623B6B9B68796B07F12002C9
:10A920000846114698474BE04AE0284B1B689B6954
:10A930009B68002B18D002233B757B685B78002B4B
:10A9400014BF01230023DBB27B753B6B0C33BB616F
:10A950003B6B9B69FB613B6B9B68796B07F1140256
:10A960000846114698472BE02AE0184B1B689B6964
:10A970009B68002B18D003233B727B685B78002B0D
:10A9800014BF01230023DBB27B723B6B0C33FB60F3
:10A990003B6B9B693B613B6B9B68796B07F10802E2
:10A9A0000846114698470BE00AE00323FB62FB6A66
:10A9B000002B04D0F86A8121054AFCF7A5FF00BFEF
:10A9C0003837BD4680BD00BF883300208C3300205F
:10A9D0003C67030080B58AB000AFF860B9607A6068
:10A9E000FB683B623B6A9B69FB613B6A1B69B3F591
:10A9F000007F01D0062342E0234B1B68002B01D0CF
:10AA000011233CE0FB697A689A61FB69BA689A6035
:10AA10001D4A3B6A136000237B623B6A143318466D
:10AA20001A49FEF7DFFB78627B6A002B0DD1BB6809
:10AA3000002B0AD1FFF72CFF154B1B78DBB2002B44
:10AA400001D1002300E00D237B627B6A002B15D02F
:10AA50000D4B00221A60BB68002B0FD000233B7403
:10AA600001237B7400237B61FB699B69BB61FB69EC
:10AA70009B6807F11002F868114698477B6A1846F0
:10AA80002837BD4680BD00BF8C330020A9A8020036
:10AA90008833002080B588B000AF78607B68FB61A8
:10AAA000FB699B69BB611A4B1A68FB699A4201D02A
:10AAB000112329E0FEF75EFC0346002B01D0112391
:10AAC00022E0FEF72BFC78617B69002B02D1104B52
:10AAD00000221A60BB699B68002B14D001233B72D3
:10AAE0007B69002B14BF01230023DBB27B720023A0
:10AAF000FB60BB699B693B61BB699B6807F108020E
:10AB00007868114698477B6918462037BD4680BD56
:10AB10008C33002080B588B000AF786039607B68E6
:10AB2000BB61BB699B697B610023FB61274B1A6892
:10AB3000BB699A4201D0112344E0FEF71BFC034697
:10AB4000002B01D011233DE07B693A680C3307CA22
:10AB500083E807003B6899683B681A683B685B6854
:10AB60009BB2084611461A46FEF75EFAF861FB6989
:10AB7000002B0ED17B699B68002B0AD1FFF788FE62
:10AB8000134B1B78DBB2002B01D1002300E00D2317
:10AB9000FB617B699B68002B13D0FB69002B10D0F5
:10ABA00002233B7201237B727B690C33FB607B6960
:10ABB0009B693B617B699B6807F1080278681146D5
:10ABC0009847FB6918462037BD4680BD8C3300206E
:10ABD0008833002080B588B000AF786039607B682A
:10ABE000BB61BB699B697B610023FB61274B1A68D2
:10ABF000BB699A4201D0112344E0FEF7BBFB034638
:10AC0000002B01D011233DE07B693A680C3307CA61
:10AC100083E807003B6899683B681A683B685B6893
:10AC20009BB2084611461A46FEF75EFAF861FB69C8
:10AC3000002B0ED17B699B68002B0AD1FFF728FE01
:10AC4000134B1B78DBB2002B01D1002300E00D2356
:10AC5000FB617B699B68002B13D0FB69002B10D034
:10AC600002233B7201237B727B690C33FB607B699F
:10AC70009B693B617B699B6807F108027868114614
:10AC80009847FB6918462037BD4680BD8C330020AD
:10AC90008833002080B489B000AFF8600B467A603A
:10ACA000FB72FB68FB61FB7A002B04D0012B0CD0FC
:10ACB00000BF062315E07B68BB61BB69002B02D097
:10ACC000BB6900221A7000230BE07B68002B01D1C6
:10ACD000072306E07B687B61FB691A1D7B691A60AC
:10ACE000002318462437BD465DF8047B704700BF3B
:10ACF00080B485B000AF78607B68FB60FB689B69BF
:10AD0000BB60BB6818461437BD465DF8047B7047CE
:10AD100080B582B000AF78607B689B68002B00D163
:10AD20000BE07B685B697A6810697A6811687A68F9
:10AD3000926898477B6800229A600837BD4680BDBC
:10AD40000EB480B585B000AF7860FB69002B0BD0E6
:10AD50000023FB6007F12003FB6007F10C03786818
:10AD6000F9691A4600F0A2F91437BD46BDE88040E3
:10AD700003B0704780B582B000AF78600B46FB70BF
:10AD80007B681A687B689B68581C796888601344E4
:10AD9000FA781A707B689A687B685B689A4202D37B
:10ADA0007868FFF7B5FF0837BD4680BD80B586B02F
:10ADB00000AFF860B9607A603B6000237B613B685C
:10ADC00003F00103002B21D00AE0BB680133BB6014
:10ADD0007B6901337B61FB7CF8681946FFF7CAFF8A
:10ADE000BB681B78FB74FB7C002BEED106E07B6814
:10ADF000013B7B60F8682021FFF7BCFF7A687B6924
:10AE00009A422BD97B68002BF1D127E0BB68002B3D
:10AE100003D0B8680AF084F9786106E07B68013BEA
:10AE20007B60F8682021FFF7A5FF7A687B699A426A
:10AE300002D97B68002BF1D10AE0BB680133BB600B
:10AE40007B6901337B61FB7CF8681946FFF792FF51
:10AE5000BB681B78FB74FB7C002BEED11837BD461A
:10AE600080BD00BF80B588B000AFF860B9607A607F
:10AE70003B60BB68FB610123BB6107E0FA697B684B
:10AE8000B2FBF3F3FB61BB690133BB61FA697B6819
:10AE90009A42F3D23A68BB699A4201D93B68BB61D6
:10AEA000FB6A03F00103002B1FD1BB6A002B1CD0EF
:10AEB000FB6A03F00203002B05D03B68002B02D194
:10AEC0003023FB7501E02023FB7507E0BB6A013BE3
:10AED000BB62FB7DF8681946FFF74CFFBB6A002B8D
:10AEE00003D0BA69BB6A9A42F0D30123FB613B6885
:10AEF000012B03D93B68013B3B6009E0BA68FB6961
:10AF0000B2FBF3F33B613A697B689A4200D205E0F9
:10AF1000FB697A6802FB03F3FB61E8E7BA68FB6947
:10AF2000B2FBF3F33B613B69FA6902FB03F3BA68D6
:10AF3000D31ABB60144A3B6913441B78F86819465E
:10AF4000FFF718FFFA697B68B2FBF3F3FB61FB695B
:10AF5000002BE3D1FB6A03F00103002B11D0BB6A85
:10AF6000002B0ED006E0BB6A013BBB62F8682021D3
:10AF7000FFF700FFBB6A002B03D0BA69BB6A9A4295
:10AF8000F1D32037BD4680BDB467030080B588B0DB
:10AF900002AFF860B9607A603B60BB68002BB8BF55
:10AFA0005B423B6101237B6107E07B683A6992FB6E
:10AFB000F3F33B617B6901337B617A683B699A42B9
:10AFC000F3DD3A687B699A4201D93B687B613B6A51
:10AFD000002B0AD0BB68002B04DB7B6A03F0040360
:10AFE000002B02D03B6A013B3B627B6A03F0020309
:10AFF000002B02D03B68002B16D07B6A03F00103C4
:10B00000002B11D13B6A002B0ED006E03B6A013BBE
:10B010003B62F8682021FFF7ADFE3B6A002B03D0AE
:10B020007A693B6A9A42F1D3BB68002B07DABB68A6
:10B030005B42BB60F8682D21FFF79CFE08E07B6A4D
:10B0400003F00403002B03D0F8682B21FFF792FED6
:10B050007B6A03F00203002B19D07B6A03F0010323
:10B06000002B14D13B68002B11D13B6A002B0ED072
:10B0700006E03B6A013B3B62F8683021FFF77AFE4D
:10B080003B6A002B03D07A693B6A9A42F1D3BA68D3
:10B090003B6A00937B6A0193F86811467A683B68C3
:10B0A000FFF7E0FE1837BD4680BD00BF80B58EB00B
:10B0B00002AFF860B9607A60BB68002B00D1E7E1AD
:10B0C000BB681B7887F82F30BB680133BB6097F8EB
:10B0D0002F30002B00D1D4E197F82F30252B40F0F2
:10B0E000C58100233B620123BB62BB681B7887F8E4
:10B0F0002F3097F82F302D2B04D0302B0AD02B2B4C
:10B1000010D017E03B6A43F001033B62BB68013398
:10B11000BB6012E03B6A43F002033B62BB68013351
:10B12000BB600AE03B6A43F004033B62BB68013347
:10B13000BB6002E00023BB6200BFBB6A002BD4D11E
:10B140000023FB6197F82F302A2B0CD17B681B68FA
:10B15000191D7A6811601B68FA691344FB61BB68AA
:10B160000133BB601AE0BB681B7887F82F3097F873
:10B170002F302F2B12D997F82F30392B0ED8BB68D0
:10B180000133BB60FA6913469B0013445B001A4607
:10B1900097F82F301344303BFB61D3E700237B62E9
:10B1A000BB681B7887F82F3097F82F302E2B1DD1D6
:10B1B000BB680133BB60BB681B7887F82F3097F8FA
:10B1C0002F302F2B12D997F82F30392B0ED8BB6880
:10B1D0000133BB607A6A13469B0013445B001A4636
:10B1E00097F82F301344303B7B62E4E7BB681B7851
:10B1F00087F82F3097F82F306C2B03D097F82F302B
:10B20000682B07D1BB680133BB60BB681B7887F82C
:10B210002F30EFE797F82F30253B532B00F2218199
:10B2200001A252F823F000BF59B4020063B4020037
:10B2300063B4020063B4020063B4020063B40200AA
:10B2400063B4020063B4020063B4020063B402009A
:10B2500063B4020063B4020063B4020063B402008A
:10B2600063B4020063B4020063B4020063B402007A
:10B2700063B4020063B4020063B4020063B402006A
:10B2800063B4020063B4020063B4020063B402005A
:10B2900063B4020063B4020063B4020063B402004A
:10B2A00063B4020063B4020063B4020063B402003A
:10B2B00063B4020063B4020063B4020063B402002A
:10B2C00063B4020063B4020063B4020063B402001A
:10B2D00063B4020063B4020063B4020063B402000A
:10B2E00063B4020063B4020063B4020063B40200FA
:10B2F00063B40200E1B3020063B4020063B402006D
:10B3000063B4020063B4020063B4020063B40200D9
:10B3100063B4020063B4020063B4020063B40200C9
:10B3200079B3020097B3020063B4020063B4020071
:10B3300063B4020063B4020097B3020063B4020076
:10B3400063B4020063B4020063B4020063B4020099
:10B3500063B4020023B4020063B4020063B40200C9
:10B3600007B4020063B40200BBB3020063B402007E
:10B3700063B40200E1B302007B681B68191D7A68A0
:10B3800011601B68BB62BB6AFB76FB7EF8681946DE
:10B39000FFF7F0FC66E07B681B68191D7A68116096
:10B3A0001B68BB62FB6900933B6A0193F868B96A4A
:10B3B0000A227B6AFFF7EAFD54E07B681B68191DCF
:10B3C0007A6811601B68BB62BA6AFB6900933B6ACA
:10B3D0000193F86811460A227B6AFFF743FD41E0BA
:10B3E0007B681B68191D7A6811601B68BB62BA6AAA
:10B3F000FB6900933B6A0193F868114610227B6A4F
:10B40000FFF730FD2EE07B681B68191D7A6811601C
:10B410001B687B61F8687969FA693B6AFFF7C6FCCB
:10B4200020E07B681B68191D7A6811601B68BB628D
:10B43000F8683021FFF79EFCF8687821FFF79AFC46
:10B44000BA6A0823009300230193F868114610227A
:10B450000823FFF707FD05E0F8682521FFF78AFCC0
:10B4600000E000BFBB680133BB6005E097F82F30F8
:10B47000F8681946FFF77EFCBB681B78002B7FF449
:10B480001FAEFB681B7B002B02D0F868FFF740FC67
:10B490003037BD4680BD00BF80B582B000AF786058
:10B4A0007868FFF765F9034618460837BD4680BD42
:10B4B00080B58AB000AF786039607B681B8A043B36
:10B4C000FB613A68FB691344DA1CFB69B2FBF3F3D6
:10B4D000FB767868FFF77AF978617B69002B01D1F8
:10B4E000002337E07B6900221A717B6901225A71BF
:10B4F000FB699AB27B69DA807B697B62FB7E013BE8
:10B500003B617B6A7A681A6000233B621DE07868C1
:10B51000FFF75CF9F860FB68002B0ED07B695B7964
:10B520000133DAB27B695A717B6AFA681A60FB6888
:10B530007A681A60FB687B6204E0786900F00EF8B4
:10B54000002307E03B6A01333B623A6A3B699A4257
:10B55000DDD37B6918462837BD4680BD80B58AB0EB
:10B5600000AF78607B68FB61FB695B79FB767B6889
:10B570003B62FB7E013B7B6100237B6205E03B6A13
:10B580001B683B627B6A01337B627A6A7B699A4201
:10B59000F5D33B6A1B683B617B683B6200237B629F
:10B5A0000BE03B6A1B68FB603869396AFFF74AF9B0
:10B5B000FB683B627B6A01337B62FA7E7B6A9A425C
:10B5C000EFD82837BD4680BD80B584B000AF786025
:10B5D0007B68FB60FB68043318460121FFF750F8D5
:10B5E0001037BD4680BD00BF80B586B000AF786023
:10B5F0007B687B617B69043318460121FFF75AF8A9
:10B600000346FB6007F10C033B613B691B78002B91
:10B6100002D17868FFF7A2FF1837BD4680BD00BF92
:10B6200080B590B000AFF860B9607A603B60FB68AD
:10B630007B62FB68FB637B6ADB881A467B6A5B790B
:10B6400003FB02F3043B3B627B6ADB88FB613B68E4
:10B650001A1DFB69B2FBF3F3BB633B680433FA6961
:10B66000B3FBF2F2F96901FB02F29B1A7B637B6880
:10B670001A683B681A443B6A9A4203D93A6A3B68A3
:10B68000D31A01E07B681B683B637B683A6B1A60E6
:10B6900005E0FB6B1B68FB63BB6B013BBB63BB6BD8
:10B6A000002BF6D10023FB62FA697B6BD31ABB62D5
:10B6B000BA6A3B6B934228BF1346BB622AE0BA6862
:10B6C000FB6A1344BB61FA6B7B6B134404337B61ED
:10B6D00097F84830002B05D0B8697969BA6A09F043
:10B6E000EBFC04E07869B969BA6A09F0E5FC00236B
:10B6F0007B63FB6B1B68FB633A6BBB6AD31A3B63D0
:10B70000FA6ABB6A1344FB62FA693B6B934228BF37
:10B710001346BB623B6B002BD1D14037BD4680BD89
:10B7200080B588B002AFF860B9607A603B607B6832
:10B730007B6107F1140200230093F868B9683B6845
:10B74000FFF76EFF1837BD4680BD00BF80B588B0DB
:10B7500002AFF860B9607A603B607B687B6107F19B
:10B76000140201230093F868B9683B68FFF758FF9B
:10B770001837BD4680BD00BF80B483B000AF03461C
:10B78000FB71094997F907305B09FA7902F01F024A
:10B79000012000FA02F2603341F823200C37BD4645
:10B7A0005DF8047B704700BF00E100E080B483B027
:10B7B00000AF78607B6800221A60BFF35F8F0C37A0
:10B7C000BD465DF8047B704741DF7047184600BFF7
:10B7D00080B584B000AF0023FB70FB1C1846FEF759
:10B7E00083FEF1EE103ABB60BB68FB60FB6823F0A0
:10B7F0009F037B607B68E1EE103ABFF35F8F2620EA
:10B80000FFF7BAFFFB781846FEF778FE1037BD4603
:10B8100080BD00BF80B500AF064B00221A700648FD
:10B82000FFF7C4FF0548064900F042F80023184618
:10B8300080BD00BF94330020903300209833002057
:10B84000D067030080B582B000AFFFF7C1FF07F0FB
:10B85000EDF80346002B03D0FFF7B6FF786002E057
:10B8600020BF40BF20BF0837BD4680BD80B483B035
:10B8700000AF78607B689B6800229A607B689B6859
:10B8800000221A617B689B6800225A617B689B6872
:10B890000022DA607B689B6800225A607B689B68A4
:10B8A00000221A600C37BD465DF8047B704700BF6C
:10B8B00080B483B000AF786039607B683A681A6002
:10B8C0007B681B681A687B685A607B685A687B686B
:10B8D0001B685B689A4202D17B6800225A600C3771
:10B8E000BD465DF8047B704780B483B000AF7860DC
:10B8F0007B685B68002B00D113E07B685B681A46AD
:10B900007B681B689B6813441A467B685A607B6897
:10B910005A687B681B685B689A4202D17B68002288
:10B920005A600C37BD465DF8047B704780B584B023
:10B9300000AF7860786800F00DF8F860FB68002BC5
:10B9400001D0FB6800E0024B18461037BD4680BDB1
:10B95000DC67030080B487B000AF7860174B7B6171
:10B96000174B3B611FE03A697B69D31ADB10DA0F92
:10B9700013445B10DB007A691344FB60FB681B68AF
:10B98000BB60BA687B689A4202D9FB683B610AE0F7
:10B99000BA687B689A4203D2FB6808337B6102E095
:10B9A000FB685B6804E07A693B699A42DBD3002359
:10B9B00018461C37BD465DF8047B7047DC6B0300FE
:10B9C000046D030080B586B000AFF860B9607A609E
:10B9D00000237B6109E0BB685A1CBA601B781846DB
:10B9E000FEF7D8FC7B6901337B617A697B689A42F8
:10B9F000F1DB7B6818461837BD4680BD80B584B042
:10BA000000AFF860B9607A6000BFB868FEF790FCDC
:10BA10000346052BF9D0012318461037BD4680BDDB
:10BA200080B400AFBFF34F8F0549054BDB6803F4CB
:10BA3000E062044B1343CB60BFF34F8F00BFFDE7C1
:10BA400000ED00E00400FA0580B400AF034B044AA7
:10BA50001A60BD465DF8047B704700BFEC2A0020E9
:10BA60000090D00380B500AF00F024F90346002B0E
:10BA70000ED04FF080430022C3F80C214FF08043DA
:10BA80000022C3F810214FF080430022C3F838256C
:10BA900000F032F90346002B76D07D4A4FF08053F8
:10BAA000D3F80434C2F82035794A4FF08053D3F8E4
:10BAB0000834C2F82435764A4FF08053D3F80C345A
:10BAC000C2F82835724A4FF08053D3F81034C2F8C8
:10BAD0002C356F4A4FF08053D3F81434C2F8303508
